{
  "address": "0xc8Bc5D90663C26D358fA619fb8D4F394c3CC7b3B",
  "abi": [
    {
      "inputs": [
        {
          "internalType": "bytes32",
          "name": "_merkleroot",
          "type": "bytes32"
        },
        {
          "internalType": "address",
          "name": "_myshellToken",
          "type": "address"
        },
        {
          "internalType": "address",
          "name": "_adminWallet",
          "type": "address"
        }
      ],
      "stateMutability": "nonpayable",
      "type": "constructor"
    },
    {
      "anonymous": false,
      "inputs": [
        {
          "indexed": false,
          "internalType": "address",
          "name": "recipient",
          "type": "address"
        },
        {
          "indexed": false,
          "internalType": "uint256",
          "name": "amount",
          "type": "uint256"
        }
      ],
      "name": "LeftoverMyShellWithdrawn",
      "type": "event"
    },
    {
      "anonymous": false,
      "inputs": [
        {
          "indexed": true,
          "internalType": "bytes32",
          "name": "newRoot",
          "type": "bytes32"
        }
      ],
      "name": "MerkleRootUpdated",
      "type": "event"
    },
    {
      "anonymous": false,
      "inputs": [
        {
          "indexed": true,
          "internalType": "bytes32",
          "name": "role",
          "type": "bytes32"
        },
        {
          "indexed": true,
          "internalType": "bytes32",
          "name": "previousAdminRole",
          "type": "bytes32"
        },
        {
          "indexed": true,
          "internalType": "bytes32",
          "name": "newAdminRole",
          "type": "bytes32"
        }
      ],
      "name": "RoleAdminChanged",
      "type": "event"
    },
    {
      "anonymous": false,
      "inputs": [
        {
          "indexed": true,
          "internalType": "bytes32",
          "name": "role",
          "type": "bytes32"
        },
        {
          "indexed": true,
          "internalType": "address",
          "name": "account",
          "type": "address"
        },
        {
          "indexed": true,
          "internalType": "address",
          "name": "sender",
          "type": "address"
        }
      ],
      "name": "RoleGranted",
      "type": "event"
    },
    {
      "anonymous": false,
      "inputs": [
        {
          "indexed": true,
          "internalType": "bytes32",
          "name": "role",
          "type": "bytes32"
        },
        {
          "indexed": true,
          "internalType": "address",
          "name": "account",
          "type": "address"
        },
        {
          "indexed": true,
          "internalType": "address",
          "name": "sender",
          "type": "address"
        }
      ],
      "name": "RoleRevoked",
      "type": "event"
    },
    {
      "anonymous": false,
      "inputs": [
        {
          "indexed": true,
          "internalType": "uint256",
          "name": "unlockTime",
          "type": "uint256"
        }
      ],
      "name": "UnlockTimeUpdated",
      "type": "event"
    },
    {
      "inputs": [],
      "name": "DEFAULT_ADMIN_ROLE",
      "outputs": [
        {
          "internalType": "bytes32",
          "name": "",
          "type": "bytes32"
        }
      ],
      "stateMutability": "view",
      "type": "function"
    },
    {
      "inputs": [],
      "name": "dropDuration",
      "outputs": [
        {
          "internalType": "uint256",
          "name": "",
          "type": "uint256"
        }
      ],
      "stateMutability": "view",
      "type": "function"
    },
    {
      "inputs": [
        {
          "internalType": "bytes32",
          "name": "role",
          "type": "bytes32"
        }
      ],
      "name": "getRoleAdmin",
      "outputs": [
        {
          "internalType": "bytes32",
          "name": "",
          "type": "bytes32"
        }
      ],
      "stateMutability": "view",
      "type": "function"
    },
    {
      "inputs": [
        {
          "internalType": "bytes32",
          "name": "role",
          "type": "bytes32"
        },
        {
          "internalType": "address",
          "name": "account",
          "type": "address"
        }
      ],
      "name": "grantRole",
      "outputs": [],
      "stateMutability": "nonpayable",
      "type": "function"
    },
    {
      "inputs": [
        {
          "internalType": "bytes32",
          "name": "role",
          "type": "bytes32"
        },
        {
          "internalType": "address",
          "name": "account",
          "type": "address"
        }
      ],
      "name": "hasRole",
      "outputs": [
        {
          "internalType": "bool",
          "name": "",
          "type": "bool"
        }
      ],
      "stateMutability": "view",
      "type": "function"
    },
    {
      "inputs": [],
      "name": "myshellToken",
      "outputs": [
        {
          "internalType": "contract IERC20",
          "name": "",
          "type": "address"
        }
      ],
      "stateMutability": "view",
      "type": "function"
    },
    {
      "inputs": [
        {
          "internalType": "address",
          "name": "_account",
          "type": "address"
        },
        {
          "internalType": "uint256",
          "name": "_amount",
          "type": "uint256"
        },
        {
          "internalType": "bytes32[]",
          "name": "_proof",
          "type": "bytes32[]"
        }
      ],
      "name": "redeem",
      "outputs": [],
      "stateMutability": "nonpayable",
      "type": "function"
    },
    {
      "inputs": [
        {
          "internalType": "bytes32",
          "name": "role",
          "type": "bytes32"
        },
        {
          "internalType": "address",
          "name": "account",
          "type": "address"
        }
      ],
      "name": "renounceRole",
      "outputs": [],
      "stateMutability": "nonpayable",
      "type": "function"
    },
    {
      "inputs": [
        {
          "internalType": "bytes32",
          "name": "role",
          "type": "bytes32"
        },
        {
          "internalType": "address",
          "name": "account",
          "type": "address"
        }
      ],
      "name": "revokeRole",
      "outputs": [],
      "stateMutability": "nonpayable",
      "type": "function"
    },
    {
      "inputs": [],
      "name": "root",
      "outputs": [
        {
          "internalType": "bytes32",
          "name": "",
          "type": "bytes32"
        }
      ],
      "stateMutability": "view",
      "type": "function"
    },
    {
      "inputs": [
        {
          "internalType": "bytes32",
          "name": "_root",
          "type": "bytes32"
        }
      ],
      "name": "setRoot",
      "outputs": [],
      "stateMutability": "nonpayable",
      "type": "function"
    },
    {
      "inputs": [
        {
          "internalType": "uint256",
          "name": "_timestamp",
          "type": "uint256"
        }
      ],
      "name": "setUnlockTime",
      "outputs": [],
      "stateMutability": "nonpayable",
      "type": "function"
    },
    {
      "inputs": [
        {
          "internalType": "bytes4",
          "name": "interfaceId",
          "type": "bytes4"
        }
      ],
      "name": "supportsInterface",
      "outputs": [
        {
          "internalType": "bool",
          "name": "",
          "type": "bool"
        }
      ],
      "stateMutability": "view",
      "type": "function"
    },
    {
      "inputs": [],
      "name": "unlockTime",
      "outputs": [
        {
          "internalType": "uint256",
          "name": "",
          "type": "uint256"
        }
      ],
      "stateMutability": "view",
      "type": "function"
    },
    {
      "inputs": [
        {
          "internalType": "bytes32",
          "name": "usedClaim",
          "type": "bytes32"
        }
      ],
      "name": "usedClaims",
      "outputs": [
        {
          "internalType": "bool",
          "name": "hasClaimed",
          "type": "bool"
        }
      ],
      "stateMutability": "view",
      "type": "function"
    },
    {
      "inputs": [],
      "name": "withdrawLeftoverMyShell",
      "outputs": [],
      "stateMutability": "nonpayable",
      "type": "function"
    }
  ],
  "transactionHash": "0x14754e49e4c180145c5f7c63a8362b09a927706482466405ed5e32ee1cfdf0e1",
  "args": [
    "0xb9985165fbf64a987f07b578cc6b0e73797adc83db6b19e7b4ff2d20b07bf1f4",
    "0xbf2F830875aC06Ff6d9cE9Ac449CE7f4fa348BFf",
    "0x77224daA67C18FC643B852f873F6365fad5f4CEA"
  ],
  "numDeployments": 2,
  "solcInputHash": "4bdee9f49c340dfb6fee9a42a4e64d10",
  "bytecode": "0x60806040526276a70060045534801561001757600080fd5b5060405161108c38038061108c83398101604081905261003691610124565b6001839055600280546001600160a01b0319166001600160a01b038416179055610061600082610069565b505050610160565b6000828152602081815260408083206001600160a01b038516845290915290205460ff16610104576000828152602081815260408083206001600160a01b03851684529091529020805460ff191660011790556100c33390565b6001600160a01b0316816001600160a01b0316837f2f8788117e7eff1d82e926ec794901d17c78024a50270940304540a733656f0d60405160405180910390a45b5050565b80516001600160a01b038116811461011f57600080fd5b919050565b60008060006060848603121561013957600080fd5b8351925061014960208501610108565b915061015760408501610108565b90509250925092565b610f1d8061016f6000396000f3fe608060405234801561001057600080fd5b50600436106101005760003560e01c8063688acc4111610097578063dab5f34011610066578063dab5f34014610227578063dace45571461023a578063ebf0c7171461024d578063fda774441461025657600080fd5b8063688acc41146101ce57806391d14854146101f9578063a217fddf1461020c578063d547741f1461021457600080fd5b8063251c1aa3116100d3578063251c1aa31461017c5780632f2ff15d1461018557806336568abe1461019857806365c6bbcb146101ab57600080fd5b806301ffc9a714610105578063044ad6221461012d57806314132f4814610144578063248a9ca314610159575b600080fd5b610118610113366004610c2f565b61025e565b60405190151581526020015b60405180910390f35b61013660045481565b604051908152602001610124565b610157610152366004610c75565b610295565b005b610136610167366004610cff565b60009081526020819052604090206001015490565b61013660035481565b610157610193366004610d18565b6104e4565b6101576101a6366004610d18565b61050e565b6101186101b9366004610cff565b60056020526000908152604090205460ff1681565b6002546101e1906001600160a01b031681565b6040516001600160a01b039091168152602001610124565b610118610207366004610d18565b61058c565b610136600081565b610157610222366004610d18565b6105b5565b610157610235366004610cff565b6105da565b610157610248366004610cff565b610616565b61013660015481565b610157610652565b60006001600160e01b03198216637965db0b60e01b148061028f57506301ffc9a760e01b6001600160e01b03198316145b92915050565b6003546000036102ec5760405162461bcd60e51b815260206004820152601c60248201527f41697264726f703a20756e6c6f636b2074696d65206e6f74207365740000000060448201526064015b60405180910390fd5b6003544210156103485760405162461bcd60e51b815260206004820152602160248201527f41697264726f703a206d797368656c6c546f6b656e7320617265206c6f636b656044820152601960fa1b60648201526084016102e3565b6000610354858561083c565b60008181526005602052604090205490915060ff16156103c25760405162461bcd60e51b8152602060048201526024808201527f41697264726f703a20436c61696d2068617320616c7265616479206265656e206044820152631d5cd95960e21b60648201526084016102e3565b6103ff8184848080602002602001604051908101604052809392919081815260200183836020028082843760009201919091525061088a92505050565b61044b5760405162461bcd60e51b815260206004820152601d60248201527f41697264726f703a20496e76616c6964206d65726b6c652070726f6f6600000060448201526064016102e3565b60008181526005602052604090819020805460ff19166001179055600254905163a9059cbb60e01b81526001600160a01b038781166004830152602482018790529091169063a9059cbb906044016020604051808303816000875af11580156104b8573d6000803e3d6000fd5b505050506040513d601f19601f820116820180604052508101906104dc9190610d44565b505050505050565b6000828152602081905260409020600101546104ff816108a0565b61050983836108ad565b505050565b6001600160a01b038116331461057e5760405162461bcd60e51b815260206004820152602f60248201527f416363657373436f6e74726f6c3a2063616e206f6e6c792072656e6f756e636560448201526e103937b632b9903337b91039b2b63360891b60648201526084016102e3565b6105888282610931565b5050565b6000918252602082815260408084206001600160a01b0393909316845291905290205460ff1690565b6000828152602081905260409020600101546105d0816108a0565b6105098383610931565b60006105e5816108a0565b60405182907f90004c04698bc3322499a575ed3752dd4abf33e0a7294c06a787a0fe01bea94190600090a250600155565b6000610621816108a0565b60405182907f6669a6c779a56629103733bcba993d66b30b061559b41f3c64bd2661cd9ea3c190600090a250600355565b600061065d816108a0565b4260035460045461066e9190610d7c565b116106cf5760405162461bcd60e51b815260206004820152602b60248201527f43616e6e6f742062652077697468647261776e20756e74696c20636c61696d2060448201526a706572696f6420656e647360a81b60648201526084016102e3565b6002546040516370a0823160e01b81523060048201526000916001600160a01b0316906370a0823190602401602060405180830381865afa158015610718573d6000803e3d6000fd5b505050506040513d601f19601f8201168201806040525081019061073c9190610d8f565b90506000811161078e5760405162461bcd60e51b815260206004820152601760248201527f4e6f20746f6b656e73206c65667420746f20636c61696d00000000000000000060448201526064016102e3565b60408051338152602081018390527f1a615df8bf3120f94cd7e834a5e9fd11b133c5794100ae1faa1a497c1bc9f59a910160405180910390a160025460405163a9059cbb60e01b8152336004820152602481018390526001600160a01b039091169063a9059cbb906044016020604051808303816000875af1158015610818573d6000803e3d6000fd5b505050506040513d601f19601f820116820180604052508101906105099190610d44565b6000818360405160200161086c92919091825260601b6bffffffffffffffffffffffff1916602082015260340190565b60405160208183030381529060405280519060200120905092915050565b60006108998260015485610996565b9392505050565b6108aa81336109ac565b50565b6108b7828261058c565b610588576000828152602081815260408083206001600160a01b03851684529091529020805460ff191660011790556108ed3390565b6001600160a01b0316816001600160a01b0316837f2f8788117e7eff1d82e926ec794901d17c78024a50270940304540a733656f0d60405160405180910390a45050565b61093b828261058c565b15610588576000828152602081815260408083206001600160a01b0385168085529252808320805460ff1916905551339285917ff6391f5c32d9c69d2a47ea670b442974b53935d1edc7fd64eb21e047a839171b9190a45050565b6000826109a38584610a05565b14949350505050565b6109b6828261058c565b610588576109c381610a52565b6109ce836020610a64565b6040516020016109df929190610dcc565b60408051601f198184030181529082905262461bcd60e51b82526102e391600401610e41565b600081815b8451811015610a4a57610a3682868381518110610a2957610a29610e74565b6020026020010151610c00565b915080610a4281610e8a565b915050610a0a565b509392505050565b606061028f6001600160a01b03831660145b60606000610a73836002610ea3565b610a7e906002610d7c565b67ffffffffffffffff811115610a9657610a96610eba565b6040519080825280601f01601f191660200182016040528015610ac0576020820181803683370190505b509050600360fc1b81600081518110610adb57610adb610e74565b60200101906001600160f81b031916908160001a905350600f60fb1b81600181518110610b0a57610b0a610e74565b60200101906001600160f81b031916908160001a9053506000610b2e846002610ea3565b610b39906001610d7c565b90505b6001811115610bb1576f181899199a1a9b1b9c1cb0b131b232b360811b85600f1660108110610b6d57610b6d610e74565b1a60f81b828281518110610b8357610b83610e74565b60200101906001600160f81b031916908160001a90535060049490941c93610baa81610ed0565b9050610b3c565b5083156108995760405162461bcd60e51b815260206004820181905260248201527f537472696e67733a20686578206c656e67746820696e73756666696369656e7460448201526064016102e3565b6000818310610c1c576000828152602084905260409020610899565b6000838152602083905260409020610899565b600060208284031215610c4157600080fd5b81356001600160e01b03198116811461089957600080fd5b80356001600160a01b0381168114610c7057600080fd5b919050565b60008060008060608587031215610c8b57600080fd5b610c9485610c59565b935060208501359250604085013567ffffffffffffffff80821115610cb857600080fd5b818701915087601f830112610ccc57600080fd5b813581811115610cdb57600080fd5b8860208260051b8501011115610cf057600080fd5b95989497505060200194505050565b600060208284031215610d1157600080fd5b5035919050565b60008060408385031215610d2b57600080fd5b82359150610d3b60208401610c59565b90509250929050565b600060208284031215610d5657600080fd5b8151801515811461089957600080fd5b634e487b7160e01b600052601160045260246000fd5b8082018082111561028f5761028f610d66565b600060208284031215610da157600080fd5b5051919050565b60005b83811015610dc3578181015183820152602001610dab565b50506000910152565b7f416363657373436f6e74726f6c3a206163636f756e7420000000000000000000815260008351610e04816017850160208801610da8565b7001034b99036b4b9b9b4b733903937b6329607d1b6017918401918201528351610e35816028840160208801610da8565b01602801949350505050565b6020815260008251806020840152610e60816040850160208701610da8565b601f01601f19169190910160400192915050565b634e487b7160e01b600052603260045260246000fd5b600060018201610e9c57610e9c610d66565b5060010190565b808202811582820484141761028f5761028f610d66565b634e487b7160e01b600052604160045260246000fd5b600081610edf57610edf610d66565b50600019019056fea264697066735822122086256d6440f3f1a2339a8afcac7c795157bc9a5a2947cae71e192a3cb7acb8e164736f6c63430008140033",
  "devdoc": {
    "events": {
      "LeftoverMyShellWithdrawn(address,uint256)": {
        "params": {
          "amount": "The amount of tokens they're sent",
          "recipient": "The address that is sent the leftover MyShell tokens"
        }
      },
      "MerkleRootUpdated(bytes32)": {
        "params": {
          "newRoot": "The new merkle root"
        }
      },
      "RoleAdminChanged(bytes32,bytes32,bytes32)": {
        "details": "Emitted when `newAdminRole` is set as ``role``'s admin role, replacing `previousAdminRole` `DEFAULT_ADMIN_ROLE` is the starting admin for all roles, despite {RoleAdminChanged} not being emitted signaling this. _Available since v3.1._"
      },
      "RoleGranted(bytes32,address,address)": {
        "details": "Emitted when `account` is granted `role`. `sender` is the account that originated the contract call, an admin role bearer except when using {AccessControl-_setupRole}."
      },
      "RoleRevoked(bytes32,address,address)": {
        "details": "Emitted when `account` is revoked `role`. `sender` is the account that originated the contract call:   - if using `revokeRole`, it is the admin role bearer   - if using `renounceRole`, it is the role bearer (i.e. `account`)"
      },
      "UnlockTimeUpdated(uint256)": {
        "params": {
          "unlockTime": "The new unlock time"
        }
      }
    },
    "kind": "dev",
    "methods": {
      "getRoleAdmin(bytes32)": {
        "details": "Returns the admin role that controls `role`. See {grantRole} and {revokeRole}. To change a role's admin, use {_setRoleAdmin}."
      },
      "grantRole(bytes32,address)": {
        "details": "Grants `role` to `account`. If `account` had not been already granted `role`, emits a {RoleGranted} event. Requirements: - the caller must have ``role``'s admin role. May emit a {RoleGranted} event."
      },
      "hasRole(bytes32,address)": {
        "details": "Returns `true` if `account` has been granted `role`."
      },
      "redeem(address,uint256,bytes32[])": {
        "params": {
          "_account": "The public key of the recipient",
          "_amount": "The amount of tokens that this user is claiming",
          "_proof": "The merkle proof of this users _account and _amount variables as a leaf within the contracts `root` variable merkle tree"
        }
      },
      "renounceRole(bytes32,address)": {
        "details": "Revokes `role` from the calling account. Roles are often managed via {grantRole} and {revokeRole}: this function's purpose is to provide a mechanism for accounts to lose their privileges if they are compromised (such as when a trusted device is misplaced). If the calling account had been revoked `role`, emits a {RoleRevoked} event. Requirements: - the caller must be `account`. May emit a {RoleRevoked} event."
      },
      "revokeRole(bytes32,address)": {
        "details": "Revokes `role` from `account`. If `account` had been granted `role`, emits a {RoleRevoked} event. Requirements: - the caller must have ``role``'s admin role. May emit a {RoleRevoked} event."
      },
      "setRoot(bytes32)": {
        "params": {
          "_root": "The new root of the merkle tree"
        }
      },
      "setUnlockTime(uint256)": {
        "params": {
          "_timestamp": "The new timestamp to set the Airdrop available at"
        }
      },
      "supportsInterface(bytes4)": {
        "details": "See {IERC165-supportsInterface}."
      }
    },
    "version": 1
  },
  "userdoc": {
    "events": {
      "LeftoverMyShellWithdrawn(address,uint256)": {
        "notice": "Event emitted when the leftover MyShell tokens are withdrawnOnly callable by accounts with the DEFAULT_ADMIN_ROLE role"
      },
      "MerkleRootUpdated(bytes32)": {
        "notice": "Event emitted when the merkle root of the contract is updated"
      },
      "UnlockTimeUpdated(uint256)": {
        "notice": "Event emitted when the airdrop unlock time is updated"
      }
    },
    "kind": "user",
    "methods": {
      "dropDuration()": {
        "notice": "the duration of the claiming period, after which excess tokens can be send back to the MyShell Treasury"
      },
      "myshellToken()": {
        "notice": "the address of the MyShell ERC20 token"
      },
      "redeem(address,uint256,bytes32[])": {
        "notice": "The function that is called by users to claim their MyShell tokens"
      },
      "root()": {
        "notice": "the merkle root of the airdrop recipient addresses"
      },
      "setRoot(bytes32)": {
        "notice": "Allows for updating of the contracts merkle rootOnly callable by accounts with the DEFAULT_ADMIN_ROLE role"
      },
      "setUnlockTime(uint256)": {
        "notice": "Allows for updating of the unlock time of the Airdrop to be changedOnly callable by accounts with the DEFAULT_ADMIN_ROLE role"
      },
      "unlockTime()": {
        "notice": "the timestamp when claiming of tokens can begin"
      },
      "usedClaims(bytes32)": {
        "notice": "a way of tracking which users have claimed their tokens using their merkle proofs"
      },
      "withdrawLeftoverMyShell()": {
        "notice": "Allows for withdrawal of the excess tokens after the claim period of this contract has ended"
      }
    },
    "version": 1
  },
  "storageLayout": {
    "storage": [
      {
        "astId": 24,
        "contract": "contracts/Airdrop.sol:Airdrop",
        "label": "_roles",
        "offset": 0,
        "slot": "0",
        "type": "t_mapping(t_bytes32,t_struct(RoleData)19_storage)"
      },
      {
        "astId": 2265,
        "contract": "contracts/Airdrop.sol:Airdrop",
        "label": "root",
        "offset": 0,
        "slot": "1",
        "type": "t_bytes32"
      },
      {
        "astId": 2269,
        "contract": "contracts/Airdrop.sol:Airdrop",
        "label": "myshellToken",
        "offset": 0,
        "slot": "2",
        "type": "t_contract(IERC20)466"
      },
      {
        "astId": 2272,
        "contract": "contracts/Airdrop.sol:Airdrop",
        "label": "unlockTime",
        "offset": 0,
        "slot": "3",
        "type": "t_uint256"
      },
      {
        "astId": 2276,
        "contract": "contracts/Airdrop.sol:Airdrop",
        "label": "dropDuration",
        "offset": 0,
        "slot": "4",
        "type": "t_uint256"
      },
      {
        "astId": 2281,
        "contract": "contracts/Airdrop.sol:Airdrop",
        "label": "usedClaims",
        "offset": 0,
        "slot": "5",
        "type": "t_mapping(t_bytes32,t_bool)"
      }
    ],
    "types": {
      "t_address": {
        "encoding": "inplace",
        "label": "address",
        "numberOfBytes": "20"
      },
      "t_bool": {
        "encoding": "inplace",
        "label": "bool",
        "numberOfBytes": "1"
      },
      "t_bytes32": {
        "encoding": "inplace",
        "label": "bytes32",
        "numberOfBytes": "32"
      },
      "t_contract(IERC20)466": {
        "encoding": "inplace",
        "label": "contract IERC20",
        "numberOfBytes": "20"
      },
      "t_mapping(t_address,t_bool)": {
        "encoding": "mapping",
        "key": "t_address",
        "label": "mapping(address => bool)",
        "numberOfBytes": "32",
        "value": "t_bool"
      },
      "t_mapping(t_bytes32,t_bool)": {
        "encoding": "mapping",
        "key": "t_bytes32",
        "label": "mapping(bytes32 => bool)",
        "numberOfBytes": "32",
        "value": "t_bool"
      },
      "t_mapping(t_bytes32,t_struct(RoleData)19_storage)": {
        "encoding": "mapping",
        "key": "t_bytes32",
        "label": "mapping(bytes32 => struct AccessControl.RoleData)",
        "numberOfBytes": "32",
        "value": "t_struct(RoleData)19_storage"
      },
      "t_struct(RoleData)19_storage": {
        "encoding": "inplace",
        "label": "struct AccessControl.RoleData",
        "members": [
          {
            "astId": 16,
            "contract": "contracts/Airdrop.sol:Airdrop",
            "label": "members",
            "offset": 0,
            "slot": "0",
            "type": "t_mapping(t_address,t_bool)"
          },
          {
            "astId": 18,
            "contract": "contracts/Airdrop.sol:Airdrop",
            "label": "adminRole",
            "offset": 0,
            "slot": "1",
            "type": "t_bytes32"
          }
        ],
        "numberOfBytes": "64"
      },
      "t_uint256": {
        "encoding": "inplace",
        "label": "uint256",
        "numberOfBytes": "32"
      }
    }
  }
}