{
  "address": "0xbf2F830875aC06Ff6d9cE9Ac449CE7f4fa348BFf",
  "abi": [
    {
      "inputs": [
        {
          "internalType": "address",
          "name": "myshellTreasury",
          "type": "address"
        }
      ],
      "stateMutability": "nonpayable",
      "type": "constructor"
    },
    {
      "inputs": [],
      "name": "InvalidShortString",
      "type": "error"
    },
    {
      "inputs": [
        {
          "internalType": "string",
          "name": "str",
          "type": "string"
        }
      ],
      "name": "StringTooLong",
      "type": "error"
    },
    {
      "anonymous": false,
      "inputs": [
        {
          "indexed": true,
          "internalType": "address",
          "name": "owner",
          "type": "address"
        },
        {
          "indexed": true,
          "internalType": "address",
          "name": "spender",
          "type": "address"
        },
        {
          "indexed": false,
          "internalType": "uint256",
          "name": "value",
          "type": "uint256"
        }
      ],
      "name": "Approval",
      "type": "event"
    },
    {
      "anonymous": false,
      "inputs": [
        {
          "indexed": true,
          "internalType": "address",
          "name": "account",
          "type": "address"
        },
        {
          "indexed": false,
          "internalType": "bool",
          "name": "isBlacklisted",
          "type": "bool"
        }
      ],
      "name": "BlacklistUpdated",
      "type": "event"
    },
    {
      "anonymous": false,
      "inputs": [],
      "name": "EIP712DomainChanged",
      "type": "event"
    },
    {
      "anonymous": false,
      "inputs": [
        {
          "indexed": true,
          "internalType": "bytes32",
          "name": "role",
          "type": "bytes32"
        },
        {
          "indexed": true,
          "internalType": "bytes32",
          "name": "previousAdminRole",
          "type": "bytes32"
        },
        {
          "indexed": true,
          "internalType": "bytes32",
          "name": "newAdminRole",
          "type": "bytes32"
        }
      ],
      "name": "RoleAdminChanged",
      "type": "event"
    },
    {
      "anonymous": false,
      "inputs": [
        {
          "indexed": true,
          "internalType": "bytes32",
          "name": "role",
          "type": "bytes32"
        },
        {
          "indexed": true,
          "internalType": "address",
          "name": "account",
          "type": "address"
        },
        {
          "indexed": true,
          "internalType": "address",
          "name": "sender",
          "type": "address"
        }
      ],
      "name": "RoleGranted",
      "type": "event"
    },
    {
      "anonymous": false,
      "inputs": [
        {
          "indexed": true,
          "internalType": "bytes32",
          "name": "role",
          "type": "bytes32"
        },
        {
          "indexed": true,
          "internalType": "address",
          "name": "account",
          "type": "address"
        },
        {
          "indexed": true,
          "internalType": "address",
          "name": "sender",
          "type": "address"
        }
      ],
      "name": "RoleRevoked",
      "type": "event"
    },
    {
      "anonymous": false,
      "inputs": [
        {
          "indexed": true,
          "internalType": "address",
          "name": "from",
          "type": "address"
        },
        {
          "indexed": true,
          "internalType": "address",
          "name": "to",
          "type": "address"
        },
        {
          "indexed": false,
          "internalType": "uint256",
          "name": "value",
          "type": "uint256"
        }
      ],
      "name": "Transfer",
      "type": "event"
    },
    {
      "inputs": [],
      "name": "BLACKLISTER_ROLE",
      "outputs": [
        {
          "internalType": "bytes32",
          "name": "",
          "type": "bytes32"
        }
      ],
      "stateMutability": "view",
      "type": "function"
    },
    {
      "inputs": [],
      "name": "DEFAULT_ADMIN_ROLE",
      "outputs": [
        {
          "internalType": "bytes32",
          "name": "",
          "type": "bytes32"
        }
      ],
      "stateMutability": "view",
      "type": "function"
    },
    {
      "inputs": [],
      "name": "DOMAIN_SEPARATOR",
      "outputs": [
        {
          "internalType": "bytes32",
          "name": "",
          "type": "bytes32"
        }
      ],
      "stateMutability": "view",
      "type": "function"
    },
    {
      "inputs": [],
      "name": "MAX_SUPPLY",
      "outputs": [
        {
          "internalType": "uint256",
          "name": "",
          "type": "uint256"
        }
      ],
      "stateMutability": "view",
      "type": "function"
    },
    {
      "inputs": [
        {
          "internalType": "address",
          "name": "owner",
          "type": "address"
        },
        {
          "internalType": "address",
          "name": "spender",
          "type": "address"
        }
      ],
      "name": "allowance",
      "outputs": [
        {
          "internalType": "uint256",
          "name": "",
          "type": "uint256"
        }
      ],
      "stateMutability": "view",
      "type": "function"
    },
    {
      "inputs": [
        {
          "internalType": "address",
          "name": "spender",
          "type": "address"
        },
        {
          "internalType": "uint256",
          "name": "amount",
          "type": "uint256"
        }
      ],
      "name": "approve",
      "outputs": [
        {
          "internalType": "bool",
          "name": "",
          "type": "bool"
        }
      ],
      "stateMutability": "nonpayable",
      "type": "function"
    },
    {
      "inputs": [
        {
          "internalType": "address",
          "name": "account",
          "type": "address"
        }
      ],
      "name": "balanceOf",
      "outputs": [
        {
          "internalType": "uint256",
          "name": "",
          "type": "uint256"
        }
      ],
      "stateMutability": "view",
      "type": "function"
    },
    {
      "inputs": [
        {
          "internalType": "address",
          "name": "account",
          "type": "address"
        }
      ],
      "name": "blacklist",
      "outputs": [],
      "stateMutability": "nonpayable",
      "type": "function"
    },
    {
      "inputs": [
        {
          "internalType": "address[]",
          "name": "accounts",
          "type": "address[]"
        },
        {
          "internalType": "bool[]",
          "name": "statuses",
          "type": "bool[]"
        }
      ],
      "name": "bulkBlacklistUpdate",
      "outputs": [],
      "stateMutability": "nonpayable",
      "type": "function"
    },
    {
      "inputs": [],
      "name": "decimals",
      "outputs": [
        {
          "internalType": "uint8",
          "name": "",
          "type": "uint8"
        }
      ],
      "stateMutability": "view",
      "type": "function"
    },
    {
      "inputs": [
        {
          "internalType": "address",
          "name": "spender",
          "type": "address"
        },
        {
          "internalType": "uint256",
          "name": "subtractedValue",
          "type": "uint256"
        }
      ],
      "name": "decreaseAllowance",
      "outputs": [
        {
          "internalType": "bool",
          "name": "",
          "type": "bool"
        }
      ],
      "stateMutability": "nonpayable",
      "type": "function"
    },
    {
      "inputs": [],
      "name": "eip712Domain",
      "outputs": [
        {
          "internalType": "bytes1",
          "name": "fields",
          "type": "bytes1"
        },
        {
          "internalType": "string",
          "name": "name",
          "type": "string"
        },
        {
          "internalType": "string",
          "name": "version",
          "type": "string"
        },
        {
          "internalType": "uint256",
          "name": "chainId",
          "type": "uint256"
        },
        {
          "internalType": "address",
          "name": "verifyingContract",
          "type": "address"
        },
        {
          "internalType": "bytes32",
          "name": "salt",
          "type": "bytes32"
        },
        {
          "internalType": "uint256[]",
          "name": "extensions",
          "type": "uint256[]"
        }
      ],
      "stateMutability": "view",
      "type": "function"
    },
    {
      "inputs": [
        {
          "internalType": "bytes32",
          "name": "role",
          "type": "bytes32"
        }
      ],
      "name": "getRoleAdmin",
      "outputs": [
        {
          "internalType": "bytes32",
          "name": "",
          "type": "bytes32"
        }
      ],
      "stateMutability": "view",
      "type": "function"
    },
    {
      "inputs": [
        {
          "internalType": "bytes32",
          "name": "role",
          "type": "bytes32"
        },
        {
          "internalType": "address",
          "name": "account",
          "type": "address"
        }
      ],
      "name": "grantRole",
      "outputs": [],
      "stateMutability": "nonpayable",
      "type": "function"
    },
    {
      "inputs": [
        {
          "internalType": "bytes32",
          "name": "role",
          "type": "bytes32"
        },
        {
          "internalType": "address",
          "name": "account",
          "type": "address"
        }
      ],
      "name": "hasRole",
      "outputs": [
        {
          "internalType": "bool",
          "name": "",
          "type": "bool"
        }
      ],
      "stateMutability": "view",
      "type": "function"
    },
    {
      "inputs": [
        {
          "internalType": "address",
          "name": "spender",
          "type": "address"
        },
        {
          "internalType": "uint256",
          "name": "addedValue",
          "type": "uint256"
        }
      ],
      "name": "increaseAllowance",
      "outputs": [
        {
          "internalType": "bool",
          "name": "",
          "type": "bool"
        }
      ],
      "stateMutability": "nonpayable",
      "type": "function"
    },
    {
      "inputs": [
        {
          "internalType": "address",
          "name": "account",
          "type": "address"
        }
      ],
      "name": "isBlackListed",
      "outputs": [
        {
          "internalType": "bool",
          "name": "",
          "type": "bool"
        }
      ],
      "stateMutability": "view",
      "type": "function"
    },
    {
      "inputs": [],
      "name": "name",
      "outputs": [
        {
          "internalType": "string",
          "name": "",
          "type": "string"
        }
      ],
      "stateMutability": "view",
      "type": "function"
    },
    {
      "inputs": [
        {
          "internalType": "address",
          "name": "owner",
          "type": "address"
        }
      ],
      "name": "nonces",
      "outputs": [
        {
          "internalType": "uint256",
          "name": "",
          "type": "uint256"
        }
      ],
      "stateMutability": "view",
      "type": "function"
    },
    {
      "inputs": [
        {
          "internalType": "address",
          "name": "owner",
          "type": "address"
        },
        {
          "internalType": "address",
          "name": "spender",
          "type": "address"
        },
        {
          "internalType": "uint256",
          "name": "value",
          "type": "uint256"
        },
        {
          "internalType": "uint256",
          "name": "deadline",
          "type": "uint256"
        },
        {
          "internalType": "uint8",
          "name": "v",
          "type": "uint8"
        },
        {
          "internalType": "bytes32",
          "name": "r",
          "type": "bytes32"
        },
        {
          "internalType": "bytes32",
          "name": "s",
          "type": "bytes32"
        }
      ],
      "name": "permit",
      "outputs": [],
      "stateMutability": "nonpayable",
      "type": "function"
    },
    {
      "inputs": [
        {
          "internalType": "bytes32",
          "name": "role",
          "type": "bytes32"
        },
        {
          "internalType": "address",
          "name": "account",
          "type": "address"
        }
      ],
      "name": "renounceRole",
      "outputs": [],
      "stateMutability": "nonpayable",
      "type": "function"
    },
    {
      "inputs": [
        {
          "internalType": "bytes32",
          "name": "role",
          "type": "bytes32"
        },
        {
          "internalType": "address",
          "name": "account",
          "type": "address"
        }
      ],
      "name": "revokeRole",
      "outputs": [],
      "stateMutability": "nonpayable",
      "type": "function"
    },
    {
      "inputs": [
        {
          "internalType": "bytes4",
          "name": "interfaceId",
          "type": "bytes4"
        }
      ],
      "name": "supportsInterface",
      "outputs": [
        {
          "internalType": "bool",
          "name": "",
          "type": "bool"
        }
      ],
      "stateMutability": "view",
      "type": "function"
    },
    {
      "inputs": [],
      "name": "symbol",
      "outputs": [
        {
          "internalType": "string",
          "name": "",
          "type": "string"
        }
      ],
      "stateMutability": "view",
      "type": "function"
    },
    {
      "inputs": [],
      "name": "totalSupply",
      "outputs": [
        {
          "internalType": "uint256",
          "name": "",
          "type": "uint256"
        }
      ],
      "stateMutability": "view",
      "type": "function"
    },
    {
      "inputs": [
        {
          "internalType": "address",
          "name": "to",
          "type": "address"
        },
        {
          "internalType": "uint256",
          "name": "amount",
          "type": "uint256"
        }
      ],
      "name": "transfer",
      "outputs": [
        {
          "internalType": "bool",
          "name": "",
          "type": "bool"
        }
      ],
      "stateMutability": "nonpayable",
      "type": "function"
    },
    {
      "inputs": [
        {
          "internalType": "address",
          "name": "from",
          "type": "address"
        },
        {
          "internalType": "address",
          "name": "to",
          "type": "address"
        },
        {
          "internalType": "uint256",
          "name": "amount",
          "type": "uint256"
        }
      ],
      "name": "transferFrom",
      "outputs": [
        {
          "internalType": "bool",
          "name": "",
          "type": "bool"
        }
      ],
      "stateMutability": "nonpayable",
      "type": "function"
    },
    {
      "inputs": [
        {
          "internalType": "address",
          "name": "account",
          "type": "address"
        }
      ],
      "name": "unblacklist",
      "outputs": [],
      "stateMutability": "nonpayable",
      "type": "function"
    }
  ],
  "transactionHash": "0x777fb19c6a7dfeb8cc073e38655aa2e261f4f07c77acce5ec1edfba173bf26b3",
  "args": [
    "0x77224daA67C18FC643B852f873F6365fad5f4CEA"
  ],
  "numDeployments": 2,
  "solcInputHash": "a08f36310ff4b2c2b457428d31ae0547",
  "bytecode": "0x6101806040526b033b2e3c9fd0803ce8000000610160523480156200002357600080fd5b5060405162002438380380620024388339810160408190526200004691620004b1565b60405180604001604052806007815260200166135e54da195b1b60ca1b81525080604051806040016040528060018152602001603160f81b81525060405180604001604052806007815260200166135e54da195b1b60ca1b8152506040518060400160405280600581526020016414d211531360da1b8152508160039081620000d0919062000587565b506004620000df828262000587565b50620000f191508390506005620001c3565b6101205262000102816006620001c3565b61014052815160208084019190912060e052815190820120610100524660a0526200019060e05161010051604080517f8b73c3c69bb8fe3d512ecc4cf759cc79239f7b179b0ffacaa9a75d522b39400f60208201529081019290925260608201524660808201523060a082015260009060c00160405160208183030381529060405280519060200120905090565b60805250503060c05250620001a7600082620001fc565b620001bc8161016051620002a160201b60201c565b50620006ea565b6000602083511015620001e357620001db8362000376565b9050620001f6565b81620001f0848262000587565b5060ff90505b92915050565b60008281526009602090815260408083206001600160a01b038516845290915290205460ff166200029d5760008281526009602090815260408083206001600160a01b03851684529091529020805460ff191660011790556200025c3390565b6001600160a01b0316816001600160a01b0316837f2f8788117e7eff1d82e926ec794901d17c78024a50270940304540a733656f0d60405160405180910390a45b5050565b6001600160a01b038216620002fd5760405162461bcd60e51b815260206004820152601f60248201527f45524332303a206d696e7420746f20746865207a65726f20616464726573730060448201526064015b60405180910390fd5b6200030b60008383620003b9565b80600260008282546200031f919062000653565b90915550506001600160a01b038216600081815260208181526040808320805486019055518481527fddf252ad1be2c89b69c2b068fc378daa952ba7f163c4a11628f55a4df523b3ef910160405180910390a35050565b600080829050601f81511115620003a4578260405163305a27a960e01b8152600401620002f4919062000675565b8051620003b182620006c5565b179392505050565b6001600160a01b0383166000908152600a602052604090205460ff1615620004245760405162461bcd60e51b815260206004820152601e60248201527f4d795368656c6c3a2073656e64657220697320626c61636b6c697374656400006044820152606401620002f4565b6001600160a01b0382166000908152600a602052604090205460ff1615620004995760405162461bcd60e51b815260206004820152602160248201527f4d795368656c6c3a20726563697069656e7420697320626c61636b6c697374656044820152601960fa1b6064820152608401620002f4565b620004ac8383836001600160e01b038416565b505050565b600060208284031215620004c457600080fd5b81516001600160a01b0381168114620004dc57600080fd5b9392505050565b634e487b7160e01b600052604160045260246000fd5b600181811c908216806200050e57607f821691505b6020821081036200052f57634e487b7160e01b600052602260045260246000fd5b50919050565b601f821115620004ac57600081815260208120601f850160051c810160208610156200055e5750805b601f850160051c820191505b818110156200057f578281556001016200056a565b505050505050565b81516001600160401b03811115620005a357620005a3620004e3565b620005bb81620005b48454620004f9565b8462000535565b602080601f831160018114620005f35760008415620005da5750858301515b600019600386901b1c1916600185901b1785556200057f565b600085815260208120601f198616915b82811015620006245788860151825594840194600190910190840162000603565b5085821015620006435787850151600019600388901b60f8161c191681555b5050505050600190811b01905550565b80820180821115620001f657634e487b7160e01b600052601160045260246000fd5b600060208083528351808285015260005b81811015620006a45785810183015185820160400152820162000686565b506000604082860101526040601f19601f8301168501019250505092915050565b805160208083015191908110156200052f5760001960209190910360031b1b16919050565b60805160a05160c05160e05161010051610120516101405161016051611ce862000750600039600061028a015260006106e0015260006106b50152600061107c0152600061105401526000610faf01526000610fd9015260006110030152611ce86000f3fe608060405234801561001057600080fd5b50600436106101c45760003560e01c80637ecebe00116100f9578063d27b341611610097578063dd62ed3e11610071578063dd62ed3e146103c6578063e47d6060146103d9578063f515e6f214610405578063f9f92be41461041a57600080fd5b8063d27b34161461038d578063d505accf146103a0578063d547741f146103b357600080fd5b806395d89b41116100d357806395d89b4114610357578063a217fddf1461035f578063a457c2d714610367578063a9059cbb1461037a57600080fd5b80637ecebe001461031657806384b0196e1461032957806391d148541461034457600080fd5b8063313ce5671161016657806336568abe1161014057806336568abe146102b457806339509351146102c757806370a08231146102da57806375e3661e1461030357600080fd5b8063313ce5671461027657806332cb6b0c146102855780633644e515146102ac57600080fd5b806318160ddd116101a257806318160ddd1461021957806323b872dd1461022b578063248a9ca31461023e5780632f2ff15d1461026157600080fd5b806301ffc9a7146101c957806306fdde03146101f1578063095ea7b314610206575b600080fd5b6101dc6101d73660046117bb565b61042d565b60405190151581526020015b60405180910390f35b6101f9610464565b6040516101e89190611835565b6101dc610214366004611864565b6104f6565b6002545b6040519081526020016101e8565b6101dc61023936600461188e565b61050e565b61021d61024c3660046118ca565b60009081526009602052604090206001015490565b61027461026f3660046118e3565b610532565b005b604051601281526020016101e8565b61021d7f000000000000000000000000000000000000000000000000000000000000000081565b61021d61055c565b6102746102c23660046118e3565b61056b565b6101dc6102d5366004611864565b6105ee565b61021d6102e836600461190f565b6001600160a01b031660009081526020819052604090205490565b61027461031136600461190f565b610610565b61021d61032436600461190f565b610689565b6103316106a7565b6040516101e8979695949392919061192a565b6101dc6103523660046118e3565b610730565b6101f961075b565b61021d600081565b6101dc610375366004611864565b61076a565b6101dc610388366004611864565b6107e5565b61027461039b366004611a0c565b6107f3565b6102746103ae366004611a78565b610992565b6102746103c13660046118e3565b610af6565b61021d6103d4366004611aeb565b610b1b565b6101dc6103e736600461190f565b6001600160a01b03166000908152600a602052604090205460ff1690565b61021d600080516020611c9383398151915281565b61027461042836600461190f565b610b46565b60006001600160e01b03198216637965db0b60e01b148061045e57506301ffc9a760e01b6001600160e01b03198316145b92915050565b60606003805461047390611b15565b80601f016020809104026020016040519081016040528092919081815260200182805461049f90611b15565b80156104ec5780601f106104c1576101008083540402835291602001916104ec565b820191906000526020600020905b8154815290600101906020018083116104cf57829003601f168201915b5050505050905090565b600033610504818585610bc2565b5060019392505050565b60003361051c858285610ce6565b610527858585610d60565b506001949350505050565b60008281526009602052604090206001015461054d81610f0f565b6105578383610f1c565b505050565b6000610566610fa2565b905090565b6001600160a01b03811633146105e05760405162461bcd60e51b815260206004820152602f60248201527f416363657373436f6e74726f6c3a2063616e206f6e6c792072656e6f756e636560448201526e103937b632b9903337b91039b2b63360891b60648201526084015b60405180910390fd5b6105ea82826110cd565b5050565b6000336105048185856106018383610b1b565b61060b9190611b5f565b610bc2565b600080516020611c9383398151915261062881610f0f565b604051600081526001600160a01b038316907f6a12b3df6cba4203bd7fd06b816789f87de8c594299aed5717ae070fac781bac9060200160405180910390a2506001600160a01b03166000908152600a60205260409020805460ff19169055565b6001600160a01b03811660009081526007602052604081205461045e565b6000606080828080836106db7f00000000000000000000000000000000000000000000000000000000000000006005611134565b6107067f00000000000000000000000000000000000000000000000000000000000000006006611134565b60408051600080825260208201909252600f60f81b9b939a50919850469750309650945092509050565b60009182526009602090815260408084206001600160a01b0393909316845291905290205460ff1690565b60606004805461047390611b15565b600033816107788286610b1b565b9050838110156107d85760405162461bcd60e51b815260206004820152602560248201527f45524332303a2064656372656173656420616c6c6f77616e63652062656c6f77604482015264207a65726f60d81b60648201526084016105d7565b6105278286868403610bc2565b600033610504818585610d60565b600080516020611c9383398151915261080b81610f0f565b8382146108685760405162461bcd60e51b815260206004820152602560248201527f6d797368656c6c3a206d616c666f726d65642062756c6b426c61636b6c6973746044820152640818d85b1b60da1b60648201526084016105d7565b60005b8481101561098a5785858281811061088557610885611b88565b905060200201602081019061089a919061190f565b6001600160a01b03167f6a12b3df6cba4203bd7fd06b816789f87de8c594299aed5717ae070fac781bac8585848181106108d6576108d6611b88565b90506020020160208101906108eb9190611b9e565b604051901515815260200160405180910390a283838281811061091057610910611b88565b90506020020160208101906109259190611b9e565b600a600088888581811061093b5761093b611b88565b9050602002016020810190610950919061190f565b6001600160a01b031681526020810191909152604001600020805460ff19169115159190911790558061098281611bc0565b91505061086b565b505050505050565b834211156109e25760405162461bcd60e51b815260206004820152601d60248201527f45524332305065726d69743a206578706972656420646561646c696e6500000060448201526064016105d7565b60007f6e71edae12b1b97f4d1f60370fef10105fa2faae0126114a169c64845d6126c9888888610a118c6111df565b6040805160208101969096526001600160a01b0394851690860152929091166060840152608083015260a082015260c0810186905260e0016040516020818303038152906040528051906020012090506000610a6c82611207565b90506000610a7c82878787611234565b9050896001600160a01b0316816001600160a01b031614610adf5760405162461bcd60e51b815260206004820152601e60248201527f45524332305065726d69743a20696e76616c6964207369676e6174757265000060448201526064016105d7565b610aea8a8a8a610bc2565b50505050505050505050565b600082815260096020526040902060010154610b1181610f0f565b61055783836110cd565b6001600160a01b03918216600090815260016020908152604080832093909416825291909152205490565b600080516020611c93833981519152610b5e81610f0f565b604051600181526001600160a01b038316907f6a12b3df6cba4203bd7fd06b816789f87de8c594299aed5717ae070fac781bac9060200160405180910390a2506001600160a01b03166000908152600a60205260409020805460ff19166001179055565b6001600160a01b038316610c245760405162461bcd60e51b8152602060048201526024808201527f45524332303a20617070726f76652066726f6d20746865207a65726f206164646044820152637265737360e01b60648201526084016105d7565b6001600160a01b038216610c855760405162461bcd60e51b815260206004820152602260248201527f45524332303a20617070726f766520746f20746865207a65726f206164647265604482015261737360f01b60648201526084016105d7565b6001600160a01b0383811660008181526001602090815260408083209487168084529482529182902085905590518481527f8c5be1e5ebec7d5bd14f71427d1e84f3dd0314c0f7b2291e5b200ac8c7c3b925910160405180910390a3505050565b6000610cf28484610b1b565b90506000198114610d5a5781811015610d4d5760405162461bcd60e51b815260206004820152601d60248201527f45524332303a20696e73756666696369656e7420616c6c6f77616e636500000060448201526064016105d7565b610d5a8484848403610bc2565b50505050565b6001600160a01b038316610dc45760405162461bcd60e51b815260206004820152602560248201527f45524332303a207472616e736665722066726f6d20746865207a65726f206164604482015264647265737360d81b60648201526084016105d7565b6001600160a01b038216610e265760405162461bcd60e51b815260206004820152602360248201527f45524332303a207472616e7366657220746f20746865207a65726f206164647260448201526265737360e81b60648201526084016105d7565b610e3183838361125c565b6001600160a01b03831660009081526020819052604090205481811015610ea95760405162461bcd60e51b815260206004820152602660248201527f45524332303a207472616e7366657220616d6f756e7420657863656564732062604482015265616c616e636560d01b60648201526084016105d7565b6001600160a01b03848116600081815260208181526040808320878703905593871680835291849020805487019055925185815290927fddf252ad1be2c89b69c2b068fc378daa952ba7f163c4a11628f55a4df523b3ef910160405180910390a3610d5a565b610f198133611338565b50565b610f268282610730565b6105ea5760008281526009602090815260408083206001600160a01b03851684529091529020805460ff19166001179055610f5e3390565b6001600160a01b0316816001600160a01b0316837f2f8788117e7eff1d82e926ec794901d17c78024a50270940304540a733656f0d60405160405180910390a45050565b6000306001600160a01b037f000000000000000000000000000000000000000000000000000000000000000016148015610ffb57507f000000000000000000000000000000000000000000000000000000000000000046145b1561102557507f000000000000000000000000000000000000000000000000000000000000000090565b610566604080517f8b73c3c69bb8fe3d512ecc4cf759cc79239f7b179b0ffacaa9a75d522b39400f60208201527f0000000000000000000000000000000000000000000000000000000000000000918101919091527f000000000000000000000000000000000000000000000000000000000000000060608201524660808201523060a082015260009060c00160405160208183030381529060405280519060200120905090565b6110d78282610730565b156105ea5760008281526009602090815260408083206001600160a01b0385168085529252808320805460ff1916905551339285917ff6391f5c32d9c69d2a47ea670b442974b53935d1edc7fd64eb21e047a839171b9190a45050565b606060ff831461114e5761114783611391565b905061045e565b81805461115a90611b15565b80601f016020809104026020016040519081016040528092919081815260200182805461118690611b15565b80156111d35780601f106111a8576101008083540402835291602001916111d3565b820191906000526020600020905b8154815290600101906020018083116111b657829003601f168201915b5050505050905061045e565b6001600160a01b03811660009081526007602052604090208054600181018255905b50919050565b600061045e611214610fa2565b8360405161190160f01b8152600281019290925260228201526042902090565b6000806000611245878787876113d0565b9150915061125281611494565b5095945050505050565b6001600160a01b0383166000908152600a602052604090205460ff16156112c55760405162461bcd60e51b815260206004820152601e60248201527f4d795368656c6c3a2073656e64657220697320626c61636b6c6973746564000060448201526064016105d7565b6001600160a01b0382166000908152600a602052604090205460ff16156105575760405162461bcd60e51b815260206004820152602160248201527f4d795368656c6c3a20726563697069656e7420697320626c61636b6c697374656044820152601960fa1b60648201526084016105d7565b6113428282610730565b6105ea5761134f816115de565b61135a8360206115f0565b60405160200161136b929190611bd9565b60408051601f198184030181529082905262461bcd60e51b82526105d791600401611835565b6060600061139e83611793565b604080516020808252818301909252919250600091906020820181803683375050509182525060208101929092525090565b6000807f7fffffffffffffffffffffffffffffff5d576e7357a4501ddfe92f46681b20a0831115611407575060009050600361148b565b6040805160008082526020820180845289905260ff881692820192909252606081018690526080810185905260019060a0016020604051602081039080840390855afa15801561145b573d6000803e3d6000fd5b5050604051601f1901519150506001600160a01b0381166114845760006001925092505061148b565b9150600090505b94509492505050565b60008160048111156114a8576114a8611c4e565b036114b05750565b60018160048111156114c4576114c4611c4e565b036115115760405162461bcd60e51b815260206004820152601860248201527f45434453413a20696e76616c6964207369676e6174757265000000000000000060448201526064016105d7565b600281600481111561152557611525611c4e565b036115725760405162461bcd60e51b815260206004820152601f60248201527f45434453413a20696e76616c6964207369676e6174757265206c656e6774680060448201526064016105d7565b600381600481111561158657611586611c4e565b03610f195760405162461bcd60e51b815260206004820152602260248201527f45434453413a20696e76616c6964207369676e6174757265202773272076616c604482015261756560f01b60648201526084016105d7565b606061045e6001600160a01b03831660145b606060006115ff836002611c64565b61160a906002611b5f565b67ffffffffffffffff81111561162257611622611b72565b6040519080825280601f01601f19166020018201604052801561164c576020820181803683370190505b509050600360fc1b8160008151811061166757611667611b88565b60200101906001600160f81b031916908160001a905350600f60fb1b8160018151811061169657611696611b88565b60200101906001600160f81b031916908160001a90535060006116ba846002611c64565b6116c5906001611b5f565b90505b600181111561173d576f181899199a1a9b1b9c1cb0b131b232b360811b85600f16601081106116f9576116f9611b88565b1a60f81b82828151811061170f5761170f611b88565b60200101906001600160f81b031916908160001a90535060049490941c9361173681611c7b565b90506116c8565b50831561178c5760405162461bcd60e51b815260206004820181905260248201527f537472696e67733a20686578206c656e67746820696e73756666696369656e7460448201526064016105d7565b9392505050565b600060ff8216601f81111561045e57604051632cd44ac360e21b815260040160405180910390fd5b6000602082840312156117cd57600080fd5b81356001600160e01b03198116811461178c57600080fd5b60005b838110156118005781810151838201526020016117e8565b50506000910152565b600081518084526118218160208601602086016117e5565b601f01601f19169290920160200192915050565b60208152600061178c6020830184611809565b80356001600160a01b038116811461185f57600080fd5b919050565b6000806040838503121561187757600080fd5b61188083611848565b946020939093013593505050565b6000806000606084860312156118a357600080fd5b6118ac84611848565b92506118ba60208501611848565b9150604084013590509250925092565b6000602082840312156118dc57600080fd5b5035919050565b600080604083850312156118f657600080fd5b8235915061190660208401611848565b90509250929050565b60006020828403121561192157600080fd5b61178c82611848565b60ff60f81b881681526000602060e08184015261194a60e084018a611809565b838103604085015261195c818a611809565b606085018990526001600160a01b038816608086015260a0850187905284810360c0860152855180825283870192509083019060005b818110156119ae57835183529284019291840191600101611992565b50909c9b505050505050505050505050565b60008083601f8401126119d257600080fd5b50813567ffffffffffffffff8111156119ea57600080fd5b6020830191508360208260051b8501011115611a0557600080fd5b9250929050565b60008060008060408587031215611a2257600080fd5b843567ffffffffffffffff80821115611a3a57600080fd5b611a46888389016119c0565b90965094506020870135915080821115611a5f57600080fd5b50611a6c878288016119c0565b95989497509550505050565b600080600080600080600060e0888a031215611a9357600080fd5b611a9c88611848565b9650611aaa60208901611848565b95506040880135945060608801359350608088013560ff81168114611ace57600080fd5b9699959850939692959460a0840135945060c09093013592915050565b60008060408385031215611afe57600080fd5b611b0783611848565b915061190660208401611848565b600181811c90821680611b2957607f821691505b60208210810361120157634e487b7160e01b600052602260045260246000fd5b634e487b7160e01b600052601160045260246000fd5b8082018082111561045e5761045e611b49565b634e487b7160e01b600052604160045260246000fd5b634e487b7160e01b600052603260045260246000fd5b600060208284031215611bb057600080fd5b8135801515811461178c57600080fd5b600060018201611bd257611bd2611b49565b5060010190565b7f416363657373436f6e74726f6c3a206163636f756e7420000000000000000000815260008351611c118160178501602088016117e5565b7001034b99036b4b9b9b4b733903937b6329607d1b6017918401918201528351611c428160288401602088016117e5565b01602801949350505050565b634e487b7160e01b600052602160045260246000fd5b808202811582820484141761045e5761045e611b49565b600081611c8a57611c8a611b49565b50600019019056fe98db8a220cd0f09badce9f22d0ba7e93edb3d404448cc3560d391ab096ad16e9a2646970667358221220ae3a6f7282c6f697223db6527afa8de44d33816312cbbc8b752d1ec4f19cdf1864736f6c63430008140033",
  "devdoc": {
    "events": {
      "Approval(address,address,uint256)": {
        "details": "Emitted when the allowance of a `spender` for an `owner` is set by a call to {approve}. `value` is the new allowance."
      },
      "BlacklistUpdated(address,bool)": {
        "params": {
          "account": "The account that has had it's blacklist record updated",
          "isBlacklisted": "True or false, indicating the status of this users blacklist"
        }
      },
      "EIP712DomainChanged()": {
        "details": "MAY be emitted to signal that the domain could have changed."
      },
      "RoleAdminChanged(bytes32,bytes32,bytes32)": {
        "details": "Emitted when `newAdminRole` is set as ``role``'s admin role, replacing `previousAdminRole` `DEFAULT_ADMIN_ROLE` is the starting admin for all roles, despite {RoleAdminChanged} not being emitted signaling this. _Available since v3.1._"
      },
      "RoleGranted(bytes32,address,address)": {
        "details": "Emitted when `account` is granted `role`. `sender` is the account that originated the contract call, an admin role bearer except when using {AccessControl-_setupRole}."
      },
      "RoleRevoked(bytes32,address,address)": {
        "details": "Emitted when `account` is revoked `role`. `sender` is the account that originated the contract call:   - if using `revokeRole`, it is the admin role bearer   - if using `renounceRole`, it is the role bearer (i.e. `account`)"
      },
      "Transfer(address,address,uint256)": {
        "details": "Emitted when `value` tokens are moved from one account (`from`) to another (`to`). Note that `value` may be zero."
      }
    },
    "kind": "dev",
    "methods": {
      "DOMAIN_SEPARATOR()": {
        "details": "See {IERC20Permit-DOMAIN_SEPARATOR}."
      },
      "allowance(address,address)": {
        "details": "See {IERC20-allowance}."
      },
      "approve(address,uint256)": {
        "details": "See {IERC20-approve}. NOTE: If `amount` is the maximum `uint256`, the allowance is not updated on `transferFrom`. This is semantically equivalent to an infinite approval. Requirements: - `spender` cannot be the zero address."
      },
      "balanceOf(address)": {
        "details": "See {IERC20-balanceOf}."
      },
      "blacklist(address)": {
        "params": {
          "account": "The address to be blacklisted"
        }
      },
      "bulkBlacklistUpdate(address[],bool[])": {
        "details": "accounts and statuses arrays must be the same length",
        "params": {
          "accounts": "The accounts to have their blacklist status updated",
          "statuses": "An array with the same indexes as the accounts array with status' to write"
        }
      },
      "constructor": {
        "params": {
          "myshellTreasury": "The address where the MyShell tokens are sent"
        }
      },
      "decimals()": {
        "details": "Returns the number of decimals used to get its user representation. For example, if `decimals` equals `2`, a balance of `505` tokens should be displayed to a user as `5.05` (`505 / 10 ** 2`). Tokens usually opt for a value of 18, imitating the relationship between Ether and Wei. This is the default value returned by this function, unless it's overridden. NOTE: This information is only used for _display_ purposes: it in no way affects any of the arithmetic of the contract, including {IERC20-balanceOf} and {IERC20-transfer}."
      },
      "decreaseAllowance(address,uint256)": {
        "details": "Atomically decreases the allowance granted to `spender` by the caller. This is an alternative to {approve} that can be used as a mitigation for problems described in {IERC20-approve}. Emits an {Approval} event indicating the updated allowance. Requirements: - `spender` cannot be the zero address. - `spender` must have allowance for the caller of at least `subtractedValue`."
      },
      "eip712Domain()": {
        "details": "See {EIP-5267}. _Available since v4.9._"
      },
      "getRoleAdmin(bytes32)": {
        "details": "Returns the admin role that controls `role`. See {grantRole} and {revokeRole}. To change a role's admin, use {_setRoleAdmin}."
      },
      "grantRole(bytes32,address)": {
        "details": "Grants `role` to `account`. If `account` had not been already granted `role`, emits a {RoleGranted} event. Requirements: - the caller must have ``role``'s admin role. May emit a {RoleGranted} event."
      },
      "hasRole(bytes32,address)": {
        "details": "Returns `true` if `account` has been granted `role`."
      },
      "increaseAllowance(address,uint256)": {
        "details": "Atomically increases the allowance granted to `spender` by the caller. This is an alternative to {approve} that can be used as a mitigation for problems described in {IERC20-approve}. Emits an {Approval} event indicating the updated allowance. Requirements: - `spender` cannot be the zero address."
      },
      "isBlackListed(address)": {
        "params": {
          "account": "The address thats blacklist status is being queried"
        },
        "returns": {
          "_0": "bool true or false, true for blacklisted account, false otherwise"
        }
      },
      "name()": {
        "details": "Returns the name of the token."
      },
      "nonces(address)": {
        "details": "See {IERC20Permit-nonces}."
      },
      "permit(address,address,uint256,uint256,uint8,bytes32,bytes32)": {
        "details": "See {IERC20Permit-permit}."
      },
      "renounceRole(bytes32,address)": {
        "details": "Revokes `role` from the calling account. Roles are often managed via {grantRole} and {revokeRole}: this function's purpose is to provide a mechanism for accounts to lose their privileges if they are compromised (such as when a trusted device is misplaced). If the calling account had been revoked `role`, emits a {RoleRevoked} event. Requirements: - the caller must be `account`. May emit a {RoleRevoked} event."
      },
      "revokeRole(bytes32,address)": {
        "details": "Revokes `role` from `account`. If `account` had been granted `role`, emits a {RoleRevoked} event. Requirements: - the caller must have ``role``'s admin role. May emit a {RoleRevoked} event."
      },
      "supportsInterface(bytes4)": {
        "details": "See {IERC165-supportsInterface}."
      },
      "symbol()": {
        "details": "Returns the symbol of the token, usually a shorter version of the name."
      },
      "totalSupply()": {
        "details": "See {IERC20-totalSupply}."
      },
      "transfer(address,uint256)": {
        "details": "See {IERC20-transfer}. Requirements: - `to` cannot be the zero address. - the caller must have a balance of at least `amount`."
      },
      "transferFrom(address,address,uint256)": {
        "details": "See {IERC20-transferFrom}. Emits an {Approval} event indicating the updated allowance. This is not required by the EIP. See the note at the beginning of {ERC20}. NOTE: Does not update the allowance if the current allowance is the maximum `uint256`. Requirements: - `from` and `to` cannot be the zero address. - `from` must have a balance of at least `amount`. - the caller must have allowance for ``from``'s tokens of at least `amount`."
      },
      "unblacklist(address)": {
        "params": {
          "account": "The address to be unblacklisted"
        }
      }
    },
    "version": 1
  },
  "userdoc": {
    "events": {
      "BlacklistUpdated(address,bool)": {
        "notice": "Event emitted when the blacklist is updated"
      }
    },
    "kind": "user",
    "methods": {
      "BLACKLISTER_ROLE()": {
        "notice": "role given to accounts with the ability to blacklist (block transfers to/from addresses), as well as unblacklist"
      },
      "MAX_SUPPLY()": {
        "notice": "the max supply of the myshell token, all minted in the constructor"
      },
      "blacklist(address)": {
        "notice": "A function that allows callers with the BLACKLISTER_ROLE to blacklist an addressIf an account is blacklisted, they cannot be transferred to or initiate transfersonly callable by accounts with the BLACKLISTER_ROLE"
      },
      "bulkBlacklistUpdate(address[],bool[])": {
        "notice": "A function that allows callers with the address account to be able to bulk update blacklist status'If an account is blacklisted, they cannot be transferred to or initiate transfersonly callable by accounts with the BLACKLISTER_ROLE"
      },
      "isBlackListed(address)": {
        "notice": "A view function that returns the blacklist status of a given address"
      },
      "unblacklist(address)": {
        "notice": "A function that allows callers with the BLACKLISTER_ROLE to unblacklist an addressonly callable by accounts with the BLACKLISTER_ROLE"
      }
    },
    "version": 1
  },
  "storageLayout": {
    "storage": [
      {
        "astId": 429,
        "contract": "contracts/MyShell.sol:MyShell",
        "label": "_balances",
        "offset": 0,
        "slot": "0",
        "type": "t_mapping(t_address,t_uint256)"
      },
      {
        "astId": 435,
        "contract": "contracts/MyShell.sol:MyShell",
        "label": "_allowances",
        "offset": 0,
        "slot": "1",
        "type": "t_mapping(t_address,t_mapping(t_address,t_uint256))"
      },
      {
        "astId": 437,
        "contract": "contracts/MyShell.sol:MyShell",
        "label": "_totalSupply",
        "offset": 0,
        "slot": "2",
        "type": "t_uint256"
      },
      {
        "astId": 439,
        "contract": "contracts/MyShell.sol:MyShell",
        "label": "_name",
        "offset": 0,
        "slot": "3",
        "type": "t_string_storage"
      },
      {
        "astId": 441,
        "contract": "contracts/MyShell.sol:MyShell",
        "label": "_symbol",
        "offset": 0,
        "slot": "4",
        "type": "t_string_storage"
      },
      {
        "astId": 2361,
        "contract": "contracts/MyShell.sol:MyShell",
        "label": "_nameFallback",
        "offset": 0,
        "slot": "5",
        "type": "t_string_storage"
      },
      {
        "astId": 2363,
        "contract": "contracts/MyShell.sol:MyShell",
        "label": "_versionFallback",
        "offset": 0,
        "slot": "6",
        "type": "t_string_storage"
      },
      {
        "astId": 1101,
        "contract": "contracts/MyShell.sol:MyShell",
        "label": "_nonces",
        "offset": 0,
        "slot": "7",
        "type": "t_mapping(t_address,t_struct(Counter)1339_storage)"
      },
      {
        "astId": 1109,
        "contract": "contracts/MyShell.sol:MyShell",
        "label": "_PERMIT_TYPEHASH_DEPRECATED_SLOT",
        "offset": 0,
        "slot": "8",
        "type": "t_bytes32"
      },
      {
        "astId": 24,
        "contract": "contracts/MyShell.sol:MyShell",
        "label": "_roles",
        "offset": 0,
        "slot": "9",
        "type": "t_mapping(t_bytes32,t_struct(RoleData)19_storage)"
      },
      {
        "astId": 3612,
        "contract": "contracts/MyShell.sol:MyShell",
        "label": "blacklistedUsers",
        "offset": 0,
        "slot": "10",
        "type": "t_mapping(t_address,t_bool)"
      }
    ],
    "types": {
      "t_address": {
        "encoding": "inplace",
        "label": "address",
        "numberOfBytes": "20"
      },
      "t_bool": {
        "encoding": "inplace",
        "label": "bool",
        "numberOfBytes": "1"
      },
      "t_bytes32": {
        "encoding": "inplace",
        "label": "bytes32",
        "numberOfBytes": "32"
      },
      "t_mapping(t_address,t_bool)": {
        "encoding": "mapping",
        "key": "t_address",
        "label": "mapping(address => bool)",
        "numberOfBytes": "32",
        "value": "t_bool"
      },
      "t_mapping(t_address,t_mapping(t_address,t_uint256))": {
        "encoding": "mapping",
        "key": "t_address",
        "label": "mapping(address => mapping(address => uint256))",
        "numberOfBytes": "32",
        "value": "t_mapping(t_address,t_uint256)"
      },
      "t_mapping(t_address,t_struct(Counter)1339_storage)": {
        "encoding": "mapping",
        "key": "t_address",
        "label": "mapping(address => struct Counters.Counter)",
        "numberOfBytes": "32",
        "value": "t_struct(Counter)1339_storage"
      },
      "t_mapping(t_address,t_uint256)": {
        "encoding": "mapping",
        "key": "t_address",
        "label": "mapping(address => uint256)",
        "numberOfBytes": "32",
        "value": "t_uint256"
      },
      "t_mapping(t_bytes32,t_struct(RoleData)19_storage)": {
        "encoding": "mapping",
        "key": "t_bytes32",
        "label": "mapping(bytes32 => struct AccessControl.RoleData)",
        "numberOfBytes": "32",
        "value": "t_struct(RoleData)19_storage"
      },
      "t_string_storage": {
        "encoding": "bytes",
        "label": "string",
        "numberOfBytes": "32"
      },
      "t_struct(Counter)1339_storage": {
        "encoding": "inplace",
        "label": "struct Counters.Counter",
        "members": [
          {
            "astId": 1338,
            "contract": "contracts/MyShell.sol:MyShell",
            "label": "_value",
            "offset": 0,
            "slot": "0",
            "type": "t_uint256"
          }
        ],
        "numberOfBytes": "32"
      },
      "t_struct(RoleData)19_storage": {
        "encoding": "inplace",
        "label": "struct AccessControl.RoleData",
        "members": [
          {
            "astId": 16,
            "contract": "contracts/MyShell.sol:MyShell",
            "label": "members",
            "offset": 0,
            "slot": "0",
            "type": "t_mapping(t_address,t_bool)"
          },
          {
            "astId": 18,
            "contract": "contracts/MyShell.sol:MyShell",
            "label": "adminRole",
            "offset": 0,
            "slot": "1",
            "type": "t_bytes32"
          }
        ],
        "numberOfBytes": "64"
      },
      "t_uint256": {
        "encoding": "inplace",
        "label": "uint256",
        "numberOfBytes": "32"
      }
    }
  }
}